:020000040800F2
:1000000028040020450100084D0100084F010008A8
:1000100051010008530100085501000800000000CC
:100020000000000000000000000000005701000870
:1000300059010008000000005B01000835050008B8
:100040005F0100085F0100085F0100085F01000810
:100050005F0100085F0100085F0100085F01000800
:100060005F0100085F0100085F0100085F010008F0
:100070005F0100085F0100085F0100085F010008E0
:100080005F0100085F0100085F0100085F010008D0
:100090005F0100085F0100085F0100085F010008C0
:1000A0005F0100085F0100085F0100085F010008B0
:1000B0005F0100085F0100085F0100085F010008A0
:1000C0005F0100085F0100085F0100085F01000890
:1000D0005F010008B90500085F0100085F01000822
:1000E0005F0100085F0100085F0100085F01000870
:1000F0005F0100085F0100085F0100085F01000860
:100100005F0100085F0100085F0100085F0100084F
:100110005F0100085F0100085F0100085F0100083F
:100120005F0100085F0100085F0100085F0100082F
:10013000DFF80CD000F018F800480047390C000830
:10014000280400200648804706480047FEE7FEE7EF
:10015000FEE7FEE7FEE7FEE7FEE7FEE7FEE7FEE777
:100160005905000831010008064C074D06E0E0681B
:1001700040F0010394E8070098471034AC42F6D3EE
:10018000FFF7DAFF6C0D00088C0D00082DE9F04137
:10019000024600250026002000230024002791F8B5
:1001A00003C00CF00F0591F803C00CF0100CBCF16B
:1001B000000F03D091F802C04CEA050591F800C089
:1001C000BCF1000F31D0146800202BE04FF0010C7F
:1001D0000CFA00F3B1F800C00CEA03069E4220D1ED
:1001E00083004FF00F0C0CFA03F7BC4305FA03FC35
:1001F0004CEA040491F803C0BCF1280F06D14FF07B
:10020000010C0CFA00FCC2F814C00AE091F803C01B
:10021000BCF1480F05D14FF0010C0CFA00FCC2F8FC
:1002200010C0401C0828D1D31460B1F800C0BCF144
:10023000FF0F34DD546800202EE000F1080C4FF071
:10024000010808FA0CF3B1F800C00CEA03069E425C
:1002500021D183004FF00F0C0CFA03F7BC4305FAD1
:1002600003FC4CEA040491F803C0BCF1280F05D14B
:1002700000F1080C08FA0CF8C2F8148091F803C0D9
:10028000BCF1480F07D100F1080C4FF0010808FA43
:100290000CF8C2F81080401C0828CED35460BDE88A
:1002A000F0814161704701617047000070B5002125
:1002B00000230F22C47804B3154C246804F4E064CE
:1002C000C4F5E064210AC1F10403CA40447804FA89
:1002D00003F184781440214309010E4C0678A1559E
:1002E000047804F01F050124AC4005786D11AD00C1
:1002F00005F1E025C5F8004109E0047804F01F0588
:100300000124AC40044D0678761145F8264070BDB6
:100310000CED00E000E400E080E100E00249014370
:10032000024A1160704700000000FA050CED00E081
:1003300029B1064A92690243044B9A6104E0034AD8
:1003400092698243014B9A6170470000001002409D
:1003500030B500210022002400232D4D6D6805F0EA
:100360000C0121B1042905D0082923D105E0294D2C
:10037000056022E0274D05601FE0254D6D6805F4FE
:100380007012234D6D6805F48034022505EB92420E
:100390001CB9214D554305600BE01D4D6D6805F4FA
:1003A00000351DB11C4D5543056002E0194D554304
:1003B000056002E0174D056000BF00BF144D6D6879
:1003C00005F0F0010909154D6B5C0568DD404560DD
:1003D0000F4D6D6805F4E061090A104D6B5C4568CE
:1003E000DD4085600A4D6D6805F46051C90A0B4D0A
:1003F0006B5C4568DD40C560054D6D6805F44041A6
:10040000890B074D6B5CC568B5FBF3F5056130BD25
:100410000010024000127A0000093D000F00002089
:100420001F00002010B500F001F810BD0CB5002031
:10043000019000903348006840F4803031490860F2
:1004400000BF3048006800F4003000900198401C64
:100450000190009818B90198B0F5A06FF1D1294822
:10046000006800F4003010B10120009001E000208D
:1004700000900098012843D12348006840F0100004
:10048000214908600846006820F00300086008461B
:10049000006840F0020008601A4840681949486046
:1004A0000846406848600846406840F480604860FC
:1004B0000846406820F47C1048600846406840F4D4
:1004C000E81048600846006840F08070086000BF8F
:1004D0000C48006800F000700028F9D00948406816
:1004E00020F00300074948600846406840F00200D9
:1004F000486000BF0348406800F00C000828F9D1AC
:100500000CBD00000010024000200240042808D169
:100510004FF0E021096941F004014FF0E022116140
:1005200007E04FF0E021096921F004014FF0E022DB
:100530001161704706480078401CC0B20449087039
:10054000082804DB00200870012002490870704769
:10055000010000200000002010B51348006840F0A2
:1005600001001149086008464068104908400E49DA
:100570004860084600680E4908400B490860084674
:10058000006820F4802008600846406820F4FE00DF
:1005900048604FF41F008860FFF744FF4FF0006091
:1005A0000449086010BD0000001002400000FFF880
:1005B000FFFFF6FE08ED00E010B540F225510C48B3
:1005C00000F096F870B10A4800F04EF9C4B2214626
:1005D000074800F04EF900BF4021054800F07BF8C5
:1005E0000128F9D14021024800F060F810BD000058
:1005F0000038014010B586B0044601210420FFF701
:1006000097FE01218803FFF793FE01210846FFF7BB
:100610008FFE4FF40070ADF8140003208DF8160023
:1006200018208DF8170005A91E48FFF7AFFD4FF4FD
:100630008060ADF8140004208DF8170005A9194852
:10064000FFF7A4FD01940020ADF80800ADF80A0002
:10065000ADF80C00ADF810000C20ADF80E0001A9AB
:10066000114800F095F801210F4800F028F84021CA
:100670000D4800F01BF8012240F225510A4800F015
:1006800061F825208DF8000003208DF801008DF819
:10069000020001208DF803006846FFF707FE06B050
:1006A00010BD0000000801400038014001F4007254
:1006B000B2F5007F00D100BFCA430280704721B16C
:1006C000828942F40052828104E082894DF6FF73F0
:1006D0001A408281704702460020B1F5007F00D1A8
:1006E00000BF13880B400BB1012000E000207047D1
:1006F00070B50246002400230025002040F66A164B
:10070000B14200D100BFC1F3421501F01F03012621
:1007100006FA03F3012D02D19689334006E0022D3B
:1007200002D1168A334001E0968A33400C1201262A
:1007300006FA04F41688344013B10CB1012000E02D
:10074000002070BDF0B503460024002600250020DF
:1007500040F66A17B94200D100BF1846C1F34214EF
:1007600001F01F06012707FA06F5012C01D10C3014
:1007700004E0022C01D1103000E014301AB10768F7
:100780002F43076002E00768AF430760F0BD000039
:100790002DE9F04786B005460E460024A24600BF6C
:1007A000A1460027B08900B100BF2F462C8A4CF625
:1007B000FF700440F08804432C82AC894EF6F3109D
:1007C0000440B08831890843718908430443AC81EF
:1007D000AC8A4FF6FF400440B0890443AC8201A8C4
:1007E000FFF7B6FD1F48874202D1DDF810A001E0F7
:1007F000DDF80CA0A88900F4004040B10AEBCA0063
:1008000000EB0A1031684900B0FBF1F807E00AEB91
:10081000CA0000EB0A1031688900B0FBF1F86420CF
:10082000B8FBF0F004012009642101FB1089A889BC
:1008300000F4004040B1322000EBC900B0FBF1F001
:1008400000F00700044308E0322000EB09106421A7
:10085000B0FBF1F000F00F0004432C8106B0BDE8BE
:10086000F08700000038014001468888C0F3080086
:100870007047C1F30802828070470000014A0249B4
:1008800000F013B8CD0800082400002002E008C8DA
:10089000121F08C1002AFAD170477047002001E0FA
:1008A00001C1121F002AFBD170472DE9F041164605
:1008B0000F460446002503E03946B047641C6D1C12
:1008C00020780028F8D12846BDE8F08170B50446AC
:1008D0000D46E1B20548FFF7CCFF00BF8021034879
:1008E000FFF7F9FE0028F9D0204670BD003801401E
:1008F00008B501214420FFF71BFD0120ADF80000E1
:1009000028208DF8030003208DF80200694608486E
:10091000FFF73CFC1C20ADF8000048208DF80300D8
:1009200003208DF8020069460248FFF72FFC08BD3E
:10093000000801400018014029490968C1B9294946
:100940000968012914D12749091D096801290FD116
:100950002449091F096801290AD10021224A11707E
:10096000224A1170224A1170224A1170002000E0C0
:10097000012021490978012907D11949096821B9BC
:1009800000211D4A1170184A11701C49097801296B
:1009900008D114490968012904D10021174A1170AE
:1009A000124A117016490978012909D10D49091D0A
:1009B0000968012904D10021114A11700C4A1170F3
:1009C00010490978012909D10649091F0968012937
:1009D00004D100210B4A1170064A117070470000C3
:1009E000000121420C0123420700002008000020E2
:1009F0000A000020090000200B0000200C0000204D
:100A00000E0000200D00002010B5FFF795FF00B983
:100A100010BD56480068012827D1554800680128B4
:100A200023D15348001D006801281ED15048001FE3
:100A30000068012819D100204E4908704E490870FD
:100A40004E4908704E48007878B94E480078401CEE
:100A5000C0B24C4908700A2807DD00F0D9F84AA056
:100A6000FFF70CFF0120464908704048006830BB82
:100A70003F48006818BB3E48001D006801281ED191
:100A80003B48001F0068012819D100203D4908702B
:100A900039490870394908703D48007878B93548B7
:100AA0000078401CC0B2334908700A2807DD00F006
:100AB000AFF838A0FFF7E2FE0120354908702B4857
:100AC000006830BB2A480068012822D12848001D50
:100AD0000068F0B92648001F0068012819D10020DD
:100AE0002849087023490870244908702B48007869
:100AF00078B921480078401CC0B21F4908700A2804
:100B000007DD00F085F826A0FFF7B8FE0120234995
:100B100008701648006830BB15480068012822D1CB
:100B20001348001D006801281DD11148001F0068EE
:100B3000C8B90020134908700E4908700E490870A2
:100B40001948007878B90D480078401CC0B20B49AC
:100B500008700A2807DD00F05BF814A0FFF78EFE8E
:100B600001201149087000BF52E700000001214236
:100B70000C012342080000200A0000200900002088
:100B80000B000020070000206B5F75700000000064
:100B90000C0000206B5F646F776E00000E00002079
:100BA0006B5F7269676874000D0000206B5F6C6595
:100BB0006674000010B501210148FFF772FB10BDFB
:100BC0000010014010B501210148FFF76CFB10BD7A
:100BD0000010014008B501211020FFF7A9FBFF20FC
:100BE000ADF8000010208DF8030003208DF80200FE
:100BF00069460648FFF7CAFAFF210448FFF753FB8E
:100C000002210248FFF74DFB08BD00000010014023
:100C100010B508480078012805D1FFF7D3FF002060
:100C20000449087004E0FFF7C5FF0120014908707E
:100C300010BD00000600002000F026F84FF4A06070
:100C4000FFF76CFBFFF7C6FFFFF752FE4FF416509D
:100C5000FFF7D0FC11E009480078012801D100F02D
:100C600059F807480078012801D100F03BF8054801
:100C70000078012801D100F067F8ECE700000020BF
:100C8000020000200400002070B56FF00400FFF7A0
:100C90003DFC42F22831B1F1807F00D31DE021F00C
:100CA0007F40401E4FF0E022506150170F22002875
:100CB00007DA13071D0E094B00F00F04241F1D5502
:100CC00003E013071C0E064B1C5400BF00204FF01E
:100CD000E02290610720106100BF70BD18ED00E0B8
:100CE00000E400E000200849087008480078401C33
:100CF000C0B206490870642804DB00200870012097
:100D00000349087070470000020000200500002021
:100D10000400002010B50020084908700848007839
:100D2000401CC0B2064908700A2804DB0020087085
:100D3000012004490870FFF767FE10BD0000002085
:100D4000030000200200002010B5002002490870B6
:100D500002A0FFF793FD10BD0400002048656C6CF5
:100D60006F2053544D3332210A0000008C0D0008CF
:100D700000000020280000008C080008B40D0008C6
:100D800028000020000400009C080008000000006B
:100D90000000000000000000000000000000000152
:100DA00002030401020304060708090204060800FE
:040DB000000000003F
:0400000508000131BD
:00000001FF
