:020000040800F2
:10000000305B0020750200087D0200087F020008B6
:100010008102000883020008850200080000000039
:10002000000000000000000000000000DD010008EA
:100030008902000800000000210200081D0B0008D2
:100040008F0200088F0200088F0200088F0200084C
:100050008F0200088F0200088F0200088F0200083C
:100060008F0200088F0200088F0200088F0200082C
:100070008F0200088F0200088F0200088F0200081C
:100080008F0200088F0200088F0200088F0200080C
:100090008F0200088F0200088F0200088F020008FC
:1000A0008F0200088F0200088F0200088F020008EC
:1000B0008F0200088F0200088F0200088F020008DC
:1000C0008F0200088F0200088F0200088F020008CC
:1000D0008F0200088D0B00088F0200088F020008B5
:1000E0008F0200088F0200088F0200088F020008AC
:1000F0008F0200088F0200088F0200088F0200089C
:100100008F0200088F0200088F0200088F0200088B
:100110008F0200088F0200088F0200088F0200087B
:100120008F0200088F0200088F0200088F0200086B
:1001300000F002F800F042F80AA090E8000C8244B7
:100140008344AAF10107DA4501D100F037F8AFF294
:10015000090EBAE80F0013F0010F18BFFB1A43F0A5
:10016000010318470430000024300000103A24BF77
:1001700078C878C1FAD8520724BF30C830C144BF0C
:1001800004680C607047000000230024002500264E
:10019000103A28BF78C1FBD8520728BF30C148BFEA
:1001A0000B607047642900F0F180732900F0FE8134
:1001B000002070471FB51FBD10B510BD00F08BFAB1
:1001C0001146FFF7F7FF00F023FF00F0A9FA03B490
:1001D000FFF7F2FF03BC00F09CFE0000224B196801
:1001E0000868B0E8F00F80F30988BFF36F8F4FF015
:1001F000000080F311884EF00D0E704700000000E3
:1002000006480068006880F3088862B661B6BFF3EC
:100210004F8FBFF36F8F00DF00BF00BF08ED00E01E
:10022000EFF30980BFF36F8F0F4B1A6820E9F00FCF
:10023000106008B54FF0500080F31188BFF34F8F66
:10024000BFF36F8F02F0CEF84FF0000080F31188FB
:10025000BDE8084019680868B0E8F00F80F3098825
:10026000BFF36F8F704700BF44000020EFF305809D
:10027000704700000948804709480047FEE7FEE74D
:10028000FEE7FEE7FEE7FEE7FEE7FEE7FEE7FEE746
:1002900004480549054A064B704700002D0B00082D
:1002A0003101000830550020305B0020305700201D
:1002B00030570020704700000FB4044910B503AA5E
:1002C000029800F077F910BC5DF814FB14000020D0
:1002D0002DE9F0410E460446002020622046E168E8
:1002E000884730B3252805D0D4E901219047206AFA
:1002F000401CF2E7E168204600278847050018D037
:10030000A5F14100192802D820354FF40067324684
:10031000294620462760FFF745FF40B1012804D059
:10032000F61D26F007060836D8E7361DD6E728461C
:10033000DAE7206ABDE8F08170B50C460546012A6F
:1003400005D02878800600D5EA69002302E0012361
:1003500005E05B1C934202D2E05C0028F9D1A86959
:10036000E618C01AA861286A184428622846AFF324
:10037000008004E0D5E9012114F8010B9047B44254
:10038000F8D32846AFF3008070BD00002DE9F0419E
:100390000646002410687529314616A510D0AFF323
:1003A0000080002802DA404213A507E031688A077E
:1003B00001D512A502E0490704D511A5012401E0E9
:1003C000AFF3008000210A2206F1240709E0B0FB08
:1003D000F2FCB0FBF2F302FB1C00303078541846FC
:1003E000491C0028F3D123462A463046BDE8F04197
:1003F00000F059B8000000002D0000002B000000A4
:1004000020000000032A40F2308010F0030C00F0BE
:10041000158011F8013BBCF1020F624498BF11F83E
:1004200001CB00F8013B38BF11F8013BA2F10402F7
:1004300098BF00F801CB38BF00F8013B11F003036F
:1004400000F0CA80083AC0F0088051F8043B083A2E
:1004500051F804CBA0E80810F5E7121D5CBF51F875
:10046000043B40F8043BAFF30080D20724BF11F8EF
:10047000013B11F801CB48BF11F8012B24BF00F854
:10048000013B00F801CB48BF00F8012B704702F098
:10049000FF0343EA032242EA024200F0D1B8704768
:1004A0007047704770472DE9F0470D4699469246D0
:1004B000044600F124080168880604D5E06921F0AB
:1004C0001001216000E00120A84201DD471B00E08F
:1004D0000027A1697A1902EB0900081AA0612078A7
:1004E000C00602D42046AFF30080002608E0D4E91D
:1004F00001211AF806009047206A401C761C2062F1
:100500004E45F4DB2078C0060AD52046AFF30080C4
:1005100006E0D4E9012130209047206A401C206287
:10052000381EA7F10107F4DC07E0D4E9012118F82F
:1005300005009047206A401C2062281EA5F1010595
:10054000F3DC2046AFF300802078000602D50220BD
:10055000BDE8F0870120FBE701694A1C02610878C9
:10056000704700B58FB0CDE90131002105910549F3
:100570007944CDE9031011466846FFF7A9FE0FB094
:1005800000BD0000E5FFFFFF10B5436913B1AFF3F5
:10059000008001E0FFF7D0FE012010BD127800F1CD
:1005A00024010A7000224A700122EDE711684FF021
:1005B000FF32E9E7074B70B50D467B44FFF7D1FFEB
:1005C0000446284600F05CF810B14FF0FF3070BDD3
:1005D000204670BDBB09000010B5203AC0F00B806A
:1005E000B1E81850203AA0E81850B1E81850A0E837
:1005F0001850BFF4F5AF5FEA027C24BFB1E8185091
:10060000A0E8185044BF18C918C0BDE810405FEA00
:10061000827C24BF51F8043B40F8043B08BF70477C
:10062000D20728BF31F8023B48BF11F8012B28BF81
:1006300020F8023B48BF00F8012B70474FF0000242
:100640000429C0F0128010F0030C00F01F80CCF1E0
:10065000040CBCF1020F18BF00F8012BA8BF20F852
:10066000022BA1EB0C0100F011B85FEAC17C24BFA2
:1006700000F8012B00F8012B48BF00F8012B704750
:10068000007B00F0800070474FF0000200B5134679
:1006900094469646203922BFA0E80C50A0E80C50A2
:1006A000B1F12001BFF4F7AF090728BFA0E80C5053
:1006B00048BF0CC05DF804EB890028BF40F8042B4C
:1006C00008BF704748BF20F8022B11F0804F18BFB9
:1006D00000F8012B7047754600F028F8AE4605007B
:1006E0006946534620F00700854618B020B5FFF74D
:1006F000CFFDBDE820404FF000064FF000074FF05F
:1007000000084FF0000B21F00701AC46ACE8C0092F
:10071000ACE8C009ACE8C009ACE8C0098D46704738
:100720000446AFF300802046FFF751FD00487047B4
:10073000CC5400202DE9F04102460025002600207F
:1007400000230024002791F803C00CF00F0591F856
:1007500003C00CF0100CBCF1000F03D091F802C0E4
:100760004CEA050591F800C0BCF1000F31D01468C7
:1007700000202BE04FF0010C0CFA00F3B1F800C0A0
:100780000CEA03069E4220D183004FF00F0C0CFAB6
:1007900003F7BC4305FA03FC4CEA040491F803C0D8
:1007A000BCF1280F06D14FF0010C0CFA00FCC2F886
:1007B00014C00AE091F803C0BCF1480F05D14FF016
:1007C000010C0CFA00FCC2F810C0401C0828D1D360
:1007D0001460B1F800C0BCF1FF0F34DD5468002094
:1007E0002EE000F1080C4FF0010808FA0CF3B1F804
:1007F00000C00CEA03069E4221D183004FF00F0C8B
:100800000CFA03F7BC4305FA03FC4CEA040491F824
:1008100003C0BCF1280F05D100F1080C08FA0CF850
:10082000C2F8148091F803C0BCF1480F07D100F161
:10083000080C4FF0010808FA0CF8C2F81080401CB0
:100840000828CED35460BDE8F08141617047016152
:100850007047000070B5002100230F22C47804B354
:10086000154C246804F4E064C4F5E064210AC1F185
:100870000403CA40447804FA03F184781440214305
:1008800009010E4C0678A155047804F01F050124D7
:10089000AC4005786D11AD0005F1E025C5F80041CB
:1008A00009E0047804F01F050124AC40044D0678EB
:1008B000761145F8264070BD0CED00E000E400E044
:1008C00080E100E002490143024A116070470000E4
:1008D0000000FA050CED00E029B1064A1269024356
:1008E000044B1A6104E0034A12698243014B1A6106
:1008F000704700000010024029B1064A9269024385
:10090000044B9A6104E0034A92698243014B9A6165
:10091000704700000010024029B1064AD268024325
:10092000044BDA6004E0034AD2688243014BDA6088
:10093000704700000010024030B500210022002462
:1009400000232D4D6D6805F00C0121B1042905D05F
:10095000082923D105E0294D056022E0274D0560D7
:100960001FE0254D6D6805F47012234D6D6805F488
:100970008034022505EB92421CB9214D5543056098
:100980000BE01D4D6D6805F400351DB11C4D554340
:10099000056002E0194D5543056002E0174D056002
:1009A00000BF00BF144D6D6805F0F0010909154D39
:1009B0006B5C0568DD4045600F4D6D6805F4E061D6
:1009C000090A104D6B5C4568DD4085600A4D6D6815
:1009D00005F46051C90A0B4D6B5C4568DD40C5608C
:1009E000054D6D6805F44041890B074D6B5CC5688A
:1009F000B5FBF3F5056130BD0010024000127A002E
:100A000000093D001A0000202A00002010B500F067
:100A100001F810BD0CB5002001900090334800682B
:100A200040F480303149086000BF3048006800F46D
:100A3000003000900198401C0190009818B901986E
:100A4000B0F5A06FF1D12948006800F4003010B172
:100A50000120009001E0002000900098012843D17F
:100A60002348006840F010002149086008460068EB
:100A700020F0030008600846006840F002000860AB
:100A80001A48406819494860084640684860084666
:100A9000406840F4806048600846406820F47C105C
:100AA00048600846406840F4E8104860084600681E
:100AB00040F08070086000BF0C48006800F00070D3
:100AC0000028F9D00948406820F003000749486031
:100AD0000846406840F00200486000BF0348406894
:100AE00000F00C000828F9D10CBD000000100240F5
:100AF00000200240042808D14FF0E021096941F0AC
:100B000004014FF0E022116107E04FF0E021096994
:100B100021F004014FF0E0221161704710B502F09E
:100B20007FF8012801D001F001FD10BD10B5134878
:100B3000006840F00100114908600846406810490B
:100B400008400E494860084600680E4908400B49B5
:100B500008600846006820F4802008600846406865
:100B600020F4FE0048604FF41F008860FFF74EFF3E
:100B70004FF000600449086010BD00000010024002
:100B80000000FFF8FFFFF6FE08ED00E010B540F2B0
:100B900025511D4800F0F9F810B31B4800F0B0F9DA
:100BA000C4B21A48008800F40040C8B91748008849
:100BB00000F4804060B10A2C03D000201349088063
:100BC00020E01248008840F400401049088019E0F5
:100BD0000D2C06D10D48008840F480400B49088058
:100BE00010E00A480088C0F30D0009490C5407487A
:100BF0000088401C0549088008460088C72801DD98
:100C00000020088010BD00000038014018000020BE
:100C1000B800002010B586B00446012144F204005B
:100C2000FFF76AFE234800F055F84FF40070ADF866
:100C3000140003208DF8160018208DF8170005A960
:100C40001D48FFF777FD4FF48060ADF814000420D5
:100C50008DF8170005A91848FFF76CFD01940020D6
:100C6000ADF80800ADF80A00ADF80C00ADF81000C2
:100C70000C20ADF80E0001A90E4800F0D5F8252093
:100C80008DF8000003208DF801008DF8020001208E
:100C90008DF803006846FFF7DDFD012240F2255183
:100CA000044800F09CF80121024800F007F806B063
:100CB00010BD0000003801400008014021B18289C8
:100CC00042F40052828104E082894DF6FF731A409B
:100CD0008281704710B504462048844209D1012121
:100CE0008803FFF719FE00214FF48040FFF714FE40
:100CF00032E01B48844209D101214804FFF7ECFD92
:100D000000214FF40030FFF7E7FD25E0154884424D
:100D100009D101218804FFF7DFFD00214FF4802075
:100D2000FFF7DAFD18E01048844209D10121C80418
:100D3000FFF7D2FD00214FF40020FFF7CDFD0BE0BF
:100D40000A48844208D101210805FFF7C5FD0021AA
:100D50004FF48010FFF7C0FD10BD000000380140C7
:100D60000044004000480040004C0040005000405B
:100D700002460020B1F5007F00D100BF13880B4070
:100D80000BB1012000E00020704770B5024600243E
:100D900000230025002040F66A16B14200D100BFB2
:100DA000C1F3421501F01F03012606FA03F3012DDA
:100DB00002D19689334006E0022D02D1168A3340D3
:100DC00001E0968A33400C12012606FA04F41688D4
:100DD000344013B10CB1012000E0002070BDF0B52B
:100DE0000346002400260025002040F66A17B94279
:100DF00000D100BF1846C1F3421401F01F060127BD
:100E000007FA06F5012C01D10C3004E0022C01D1C7
:100E1000103000E014301AB107682F43076002E079
:100E20000768AF430760F0BD2DE9F04786B005467F
:100E30000E460024A24600BFA1460027B08900B19B
:100E400000BF2F462C8A4CF6FF700440F088044304
:100E50002C82AC894EF6F3100440B08831890843E7
:100E6000718908430443AC81AC8A4FF6FF400440CB
:100E7000B0890443AC8201A8FFF75EFD1F4887429A
:100E800002D1DDF810A001E0DDF80CA0A88900F483
:100E9000004040B10AEBCA0000EB0A10316849007B
:100EA000B0FBF1F807E00AEBCA0000EB0A1031686A
:100EB0008900B0FBF1F86420B8FBF0F004012009D0
:100EC000642101FB1089A88900F4004040B1322060
:100ED00000EBC900B0FBF1F000F00700044308E0AC
:100EE000322000EB09106421B0FBF1F000F00F009C
:100EF00004432C8106B0BDE8F087000000380140B3
:100F000001468888C0F308007047C1F30802828058
:100F1000704700BF7047000010B50420FFF7EAFDDE
:100F2000104800681049B0FBF1F0104908700D48F6
:100F300000680F49B0FBF1F44FF47A70444301208C
:100F40000C4908804FF0E020006940F002004FF0AB
:100F5000E021086108464461006940F00100086131
:100F600010BD00003000002040420F0010000020A3
:100F700000127A001200002070B504460D4600BF32
:100F800040210548FFF7F4FE0028F9D0E1B20248FD
:100F9000FFF7BBFF204670BD0038014000BF04A032
:100FA000FFF78AF94FF47A7001F0A8F8F7E700002C
:100FB0006B65790A0000000008B501211020FFF7D9
:100FC0009BFCFF20ADF8000010208DF803000320EB
:100FD0008DF8020069460648FFF7ACFBFF21044884
:100FE000FFF735FC02210248FFF72FFC08BD000087
:100FF0000010014000BF04A0FFF75EF94FF47A70C3
:1010000001F07CF8F7E700006C65640A000000005E
:101010001CB54FF4A060FFF755FC4FF41650FFF7D6
:10102000F9FDFFF779FFFFF7C7FF164801210023FD
:101030000A02CDE9001014A1164801F0C1FD1648BE
:10104000012100238022CDE9001014A1164801F0EF
:10105000B7FD1648012100238022CDE9001014A11C
:10106000164801F0ADFD0020012103468022CDE9A4
:10107000001013A1154801F0A3FD01F055F900205F
:101080001CBD0000000000207072696E745F746106
:10109000736B0000D11000080400002073746172AB
:1010A000745F7461736B00006D1D00080800002000
:1010B0006C65645F7461736B00000000F50F0008DD
:1010C0006B65795F7461736B000000009D0F000811
:1010D00006E004A0FFF7F0F841F2883001F00EF8C6
:1010E000F7E700003148656C6C6F2053544D333284
:1010F000210A00002DE9F04105460E461C4807680C
:101100001C480068001D00F043FE50B919480068F3
:1011100090F82C100120884017490968814316482F
:101120000160681C38B936B112480168091D1348BE
:1011300000F06CFE1AE07C190E4800684460BC4266
:1011400007D20C480168091D0D48006800F044FEF4
:101150000CE008480168091D0A48006800F03CFEE0
:1011600009480068844201D207480460BDE8F08164
:1011700058000020440000205C0000209004002063
:101180004C000020480000207400002010B50446E8
:1011900000F048FE24480068401C234908602348AA
:1011A000006840B9214804600846006801280DD154
:1011B00000F0EEF90AE01E48006838B91B480068E4
:1011C000C06AE16A884201D818480460194800687A
:1011D000401C1849086008460068606494F82C10A8
:1011E0000120884014490968084313490860E16AEE
:1011F00001EB8101114A02EB8100211D00F006FE86
:1012000000F052FE0A48006868B108480068C06AE9
:10121000E16A884207D24FF0805009490860BFF365
:101220004F8FBFF36F8F10BD54000020440000208B
:1012300060000020700000205C000020C001002041
:1012400004ED00E010B500F0EDFD10480068D0B9E5
:101250000F4800F0B1FD0F4800F0AEFD0C480E49FC
:1012600008600C480D49086000221021052001F09B
:1012700077F9064908600846006820B108A10348CC
:10128000006800F0FFFE00F00FFE10BD8800002097
:10129000A4040020B8040020800000208400002066
:1012A000546D72510000000070B523E001F092F817
:1012B0001348006808B9012000E00020054601F04D
:1012C0003BFEBDB900F0AEFD0D48C068C468201DEE
:1012D00000F05EFD0B480068401E0A4908600A489D
:1012E0000068401E0849086000F0DEFD204600F05E
:1012F00060F800BF044800680028D7D170BD000026
:101300007C040020540000205000002070B50446EA
:101310000D46206C70B1216CE0680844E0606168A3
:10132000E068884201D32068E0602846226CE168CA
:10133000FFF768F870BD2DE9F04104460F461546E9
:101340004FF00008A66B206C40B9206860BB606855
:1013500001F02CFD80460020606025E07DB9394613
:10136000226CA068FFF74EF8216CA0680844A060CA
:10137000D4E90110884217D32068A06014E03946F0
:10138000226CE068FFF73EF8216CE068401AE060EC
:101390002168E068884203D2216C6068401AE060EE
:1013A000022D01D106B1761E701CA0634046BDE837
:1013B000F08110B50446206B00F0ACFD204600F033
:1013C000A9FD10BD0146084A126812680AB9012237
:1013D00000E000220A600A6822B9034A1268D26853
:1013E000106800E0002070478000002030B54FF406
:1013F000A043174800F007042CB1C01D20F00700DF
:10140000134C041B1B1B0246124C22600024114D7E
:101410006C60D018083820F007000F4C20600024C2
:101420000D4D2D686C600C4D2D682C601146441AD2
:101430004C60094C24680C60084D4C682C60084DC9
:101440004C682C604FF00044064D2C6030BD00000D
:10145000CC040020940000209C000020A400002068
:10146000A0000020A800002000BFFFF71DFF0648D5
:1014700000680128F9D94FF0805004490860BFF393
:101480004F8FBFF36F8FF0E7C001002004ED00E045
:101490002DE9F04106460D4617469846069C0DB9C3
:1014A000246000E02760E66325640121204601F006
:1014B00075F984F850800020A064BDE8F081000038
:1014C0002DE9F05F82460F4690469B460A9E0C9C93
:1014D0004FEA8801A522206BFEF7D9FFA8F1010091
:1014E000216B01EB800929F0070909F0070008B911
:1014F000012000E0002028B940F22B321BA120A0DF
:10150000FEF7DAFE002507E0795D04F1340041556D
:10151000785D00B902E06D1C102DF5D300BF0021ED
:1015200043200155202E00D31F26E662E6640020EA
:101530002065201D00F04DFC04F1180000F049FC6E
:101540002461C6F12000A06164620020606584F817
:1015500058005A465146484600F0F6FB20600B986A
:1015600008B10B980460BDE8F09F00004672656505
:1015700052544F535C7461736B732E630000000010
:101580004572726F723A25732C25640D0A000000B3
:1015900010B5002407E004EB84010F4A02EB810040
:1015A00000F00AFC641C202CF5D30C4800F004FC6D
:1015B0000B4800F001FC0B4800F0FEFB0A4800F06D
:1015C000FBFB0A4800F0F8FB04480949086004489E
:1015D0000849086010BD0000C00100204004002040
:1015E00054040020680400207C04002090040020A3
:1015F000480000204C00002010B50146164800E0CD
:10160000006803688B42FBD30246436813448B4255
:1016100004D143684C682344436001460A464B6842
:1016200013440468A34211D10C4C03682468A342FC
:1016300008D04B680468646823444B6003681B68E7
:101640000B6005E0054B1B680B6001E003680B6055
:10165000884200D0016010BD940000209C00002052
:101660002DE9F04104460D4616461F464FF000088E
:1016700065602461B5420CD8F01BA169884202D391
:101680004FF0010811E0211D0948006800F0A4FB9B
:101690000BE0BE4204D2BD4202D34FF0010804E089
:1016A000211D0448006800F097FB4046BDE8F0812A
:1016B000840000208000002070B5054600F0B2FBD9
:1016C000A86B08B9012400E0002400F0EDFB2046DF
:1016D00070BD70B5054600F0A5FBA86BE96B8842AC
:1016E00001D1012400E0002400F0DEFB204670BDA3
:1016F0002DE9F3410D460098846C00272CB940F683
:10170000CE121AA11EA0FEF7D7FDA06BE16B884296
:1017100001D2012000E0002028B940F6CF1213A129
:1017200017A0FEF7C9FDA06BE16B88421BD294F9AC
:1017300045602A4669462046FFF7FDFD0746701CB6
:1017400060B9606A08B9012000E0002050B904F1D6
:10175000240001F097FB28B1012703E0701C40B280
:1017600084F8450000BF3846BDE8FC8146726565D7
:1017700052544F535C71756575652E63000000000F
:101780004572726F723A25732C25640D0A000000B1
:10179000F8B505460F4613480068C068C468201DA8
:1017A00000F0F6FAE069012818D1A06941192B462A
:1017B0003A462046FFF754FF80B1002003462A46F0
:1017C00001460090204601F07FFC06462EB94FF4FA
:1017D000027205A109A0FEF76FFD00BF2046616AF5
:1017E0008847F8BD800000204672656552544F530B
:1017F0005C74696D6572732E630000004572726FD0
:10180000723A25732C25640D0A000000F0B587B0EC
:1018100070E0039800280CDA04AE2EB940F2E722FB
:101820003AA13FA0FEF748FDD6E90020B1689047F5
:1018300000BF039800285DDB059C606908B90120A2
:1018400000E0002010B9201D00F0A2FA02A800F06C
:10185000C5F8054603980A284AD2DFE800F00905D2
:10186000072C2E4506082D2F00BF00BF00BF00BF6C
:101870000498A269811803462A462046FFF7F0FE25
:10188000C0B12046616A8847E069012812D1002072
:1018900000900498A169421800231946204601F0DF
:1018A00013FC07462FB940F2213218A11CA0FEF705
:1018B00003FD00BF1DE000BF1BE000BF0498A06156
:1018C000A06908B1012000E0002028B94FF44E7251
:1018D0000EA113A0FEF7F0FCA06941192B462A4681
:1018E0002046FFF7BDFE04E0204600F013FB00E0B9
:1018F00000BF00BF00231A4603A90D48006800F08E
:1019000069FE002885D107B0F0BD0000467265650C
:1019100052544F535C74696D6572732E63000000FE
:101920004572726F723A25732C25640D0A0000000F
:1019300088000020F8B505460C4600F04BFD6846CF
:1019400000F04CF80646009820BB44B9B54206D8D2
:1019500001F0F2FA31462846FFF71AFF1CE03CB1CD
:101960000E480068006808B9012000E00020044625
:10197000A91B22460A48006800F09AFB01F0DCFA35
:1019800050B94FF0805007490860BFF34F8FBFF345
:101990006F8F01E001F0D0FAF8BD00008400002054
:1019A0008800002004ED00E00A490968096809B9C7
:1019B000012100E0002121B14FF0FF31064A116002
:1019C00006E004490968C968C868034A41681160AB
:1019D00070470000480000207400002070B50446E5
:1019E00001F02EF9054607480068854204D200F050
:1019F0000BF80120206001E0002020600148056014
:101A0000284670BD900000202DE9F8432DE02148C4
:101A10000068C06805681F480068C068C468201D69
:101A200000F0B6F92046616A8847E06901281CD1B8
:101A3000A0694619AE4207D966602461211D154888
:101A4000006800F0C9F910E0002003462A4601466C
:101A50000090204601F038FB07462FB940F2923241
:101A60000DA112A0FEF728FC00BF0A48006800681C
:101A700008B9012000E000200028C8D00548D0F8AF
:101A800000800E480068034908600C48C0F80080D8
:101A9000BDE8F883800000204672656552544F53BC
:101AA0005C74696D6572732E630000004572726F1D
:101AB000723A25732C25640D0A0000008400002072
:101AC0000B480068401C08B9012000E0002020B944
:101AD000F42208A111A0FEF7EFFB00BF502080F315
:101AE0001188BFF34F8FBFF36F8F00BF00BFFEE7BA
:101AF000AC0000204672656552544F535C706F72A3
:101B00007461626C655C525644535C41524D5F4354
:101B10004D335C706F72742E630000004572726FFB
:101B2000723A25732C25640D0A00000008B500BF29
:101B30006846FFF747FC044620460099FFF7FAFE87
:101B4000FFF764FEF4E770B5044600F06BF994F912
:101B500045501AE0A06C38B100212046FFF7C8FDBF
:101B600088B100F005FB0EE0606A08B9012000E0D2
:101B7000002038B904F1240001F084F918B100F014
:101B8000F7FA00E003E0681E45B2002DE2DC00BF7A
:101B9000FF2084F8450000F087F900F043F994F93C
:101BA000445010E0206908B9012000E0002048B945
:101BB00004F1100001F066F908B100F0D9FA681ECE
:101BC00045B200E001E0002DECDC00BFFF2084F80E
:101BD000440000F069F970BD2DE9F04104464FF072
:101BE000000800F0F7FB3E48006808B9FFF7FEFB6D
:101BF0003C480068204000285FD1A4B1083404F0BC
:101C0000070080B104F00700C0F10800044404F0AC
:101C1000070008B9012000E0002020B9BF2232A14E
:101C20003AA0FEF749FB002C47D03C4800688442AC
:101C300043D83B4E3046056801E02E462D68686863
:101C4000A04202D228680028F7D1254800688542C2
:101C500033D0306800F10808286830606868001BDD
:101C6000102813D92F1907F0070008B9012000E048
:101C7000002020B9EC221CA124A0FEF71DFB6868FF
:101C8000001B78606C603846FFF7B6FC2349686833
:101C90000968081A2149086008460068214909684E
:101CA000884203D21D4800681E4908600D496868D3
:101CB0000968084368600020286001F03DF908F0D9
:101CC000070008B9012000E0002028B94FF49672FF
:101CD00005A10EA0FEF7F0FA4046BDE8F081000035
:101CE0009C000020A80000204672656552544F53A6
:101CF0005C706F727461626C655C4D656D4D616E98
:101D0000675C686561705F342E6300004572726FB6
:101D1000723A25732C25640D0A000000A0000020F3
:101D200094000020A40000200648006830B1054956
:101D3000096801F15000096D491C01600148006803
:101D40007047000044000020001F4FF080730360C4
:101D5000001F21F001030360001F034B03601438D0
:101D60000260203870470000C11A000806E041F206
:101D7000883000F0C3F902A0FEF79EFAF7E70000F2
:101D80003248656C6C6F2053544D333262210A0027
:101D900001460A69D1E901309860D1E90103586030
:101DA0005068884201D1886850600020086110683E
:101DB000401E10601068704700F1080141604FF04C
:101DC000FF31816000F10801C16001610021016003
:101DD000704700210161704710B502460B685C1C1A
:101DE0000CB9106907E002F1080000E0406844689F
:101DF00024689C42FAD944684C604C68A1608860B1
:101E000041600A611468641C146010BD42684A6035
:101E100093688B60936859609160086103685B1CEC
:101E20000360704710B500BF502080F31188BFF3E6
:101E30004F8FBFF36F8F00BF0B480068401C0A49EB
:101E400008600846006801280DD108480068C0B243
:101E500008B9012000E0002028B94FF4BD7204A1A8
:101E60000DA0FEF729FA10BDAC00002004ED00E043
:101E70004672656552544F535C706F727461626C48
:101E8000655C525644535C41524D5F434D335C7028
:101E90006F72742E630000004572726F723A257380
:101EA0002C25640D0A00000010B50B48006828B905
:101EB00040F2811209A113A0FEF7FEF9064800685E
:101EC000401E054908600846006820B9002080F3DC
:101ED000118800BF00BF10BDAC00002046726565D0
:101EE00052544F535C706F727461626C655C5256F1
:101EF00044535C41524D5F434D335C706F72742E9E
:101F0000630000004572726F723A25732C25640DD0
:101F10000A00000070B506463546002E35D0083D53
:101F20002C461A4960680968084008B1012000E0A1
:101F3000002028B94FF4A07215A11EA0FEF7BCF92D
:101F4000206808B9012000E0002028B940F24112C1
:101F50000FA118A0FEF7B0F90C49606809680840A5
:101F600098B1206888B90949606809688843606049
:101F700000F030FA134960680968084411490860A4
:101F80002046FFF739FB00F0D7FF70BDA800002006
:101F90004672656552544F535C706F727461626C27
:101FA000655C4D656D4D616E675C686561705F3441
:101FB0002E6300004572726F723A25732C25640DF2
:101FC0000A000000A0000020064800684FF47A7163
:101FD000B0FBF1F0401E4FF0E0214861072008619E
:101FE000704700003000002070B5FEF73FF905464D
:101FF000102D11D305F1E02090F8F043104800783F
:10200000844201DB012000E0002028B94FF42A724D
:102010000CA116A0FEF750F91848006800F4E06023
:1020200017490968884201D8012000E0002028B93A
:102030004FF42E7203A10DA0FEF73EF970BD000013
:10204000B00000204672656552544F535C706F7249
:102050007461626C655C525644535C41524D5F43FF
:102060004D335C706F72742E630000004572726FA6
:10207000723A25732C25640D0A0000000CED00E077
:10208000B4000020024600200BE0084B53F830302B
:1020900033B9064B43F8301003EBC0035A6002E03B
:1020A000401C0828F1D300BF7047000080010020C9
:1020B0002DE9F04105460E4617462C46FFF7B2FEC5
:1020C00094F94400401C10B9002084F8440094F9AD
:1020D0004500401C10B9002084F84500FFF7E4FEDD
:1020E000A06B28B93A46314604F1240000F070F89C
:1020F0002046FFF728FDBDE8F081000070B50446DA
:102100000025ACB10F48006808B9012000E00020AC
:1021100028B940F2CF420CA110A0FEF7CDF800F094
:1021200059F900212046FEF7E5FF00F005FF0546BE
:102130003DB94FF080500D490860BFF34F8FBFF39A
:102140006F8F70BD7C0000204672656552544F53FE
:102150005C7461736B732E63000000004572726FD4
:10216000723A25732C25640D0A00000004ED00E08E
:1021700001200149086070476800002070B50446DE
:102180000D462CB940F6063207A10CA0FEF794F8D4
:102190000E48016818312046FFF71EFE012128462F
:1021A000FEF7A8FF70BD00004672656552544F539C
:1021B0005C7461736B732E63000000004572726F74
:1021C000723A25732C25640D0A000000440000209B
:1021D00070B505460E4614462DB940F6313209A1B8
:1021E0000DA0FEF769F81048016818312846FFF77E
:1021F0000DFE0CB14FF0FF3621463046FEF77AFF58
:1022000070BD00004672656552544F535C74617333
:102210006B732E63000000004572726F723A257373
:102220002C25640D0A0000004400002070B505460E
:102230002C46002D4BD02649E06A0968C96A8842BD
:1022400045D2A06900F0004028B921480068C06A62
:10225000C0F12000A061E16A01EB81011D4A02EB9F
:1022600081016069884201D1012000E0002050B363
:10227000201DFFF78DFD78B9E06A00EB800015495D
:1022800051F8200040B994F82C10012088401249E0
:1022900009688143104801600D480068C06AE06227
:1022A00094F82C10012088400B49096808430A491A
:1022B0000860E16A01EB8101064A02EB8100211D01
:1022C000FFF7A4FD03E002480068C06AE06270BD49
:1022D00044000020C00100205C00002010B504462E
:1022E0002CB940F6C13205A109A0FDF7E5FF0C4865
:1022F000006820600B480068606010BD467265652C
:1023000052544F535C7461736B732E630000000072
:102310004572726F723A25732C25640D0A00000015
:102320006C000020580000201CB51A4800210B4604
:102330008222CDE9001018A1194800F041FC0446A2
:10234000012C02D100F088FE0446012C15D100BFFB
:10235000502080F31188BFF34F8FBFF36F8F00BF02
:102360004FF0FF300F49086001200F49086000203E
:102370000E49086000F08AF80BE0601C08B10120EB
:1023800000E0002028B940F2847209A10DA0FDF7F9
:1023900093FF1CBD7800002049444C45000000001C
:1023A000691400087400002060000020580000201C
:1023B0004672656552544F535C7461736B732E6340
:1023C000000000004572726F723A25732C25640D6F
:1023D0000A00000002480068401C0149086070477C
:1023E0007C00002010B51B48006818B101201A4974
:1023F00008602DE000201849086018480068B0FA0D
:1024000080F0C0F11F0404EB8400154951F820004E
:1024100008B1012000E0002028B940F6F62211A101
:1024200015A0FDF749FF04EB84010D4A02EB810082
:1024300041684968416000F1080142688A4202D15E
:102440004168496841604168C9680F4A116000BF2E
:1024500010BD00007C000020680000205C0000200F
:10246000C00100204672656552544F535C7461731D
:102470006B732E63000000004572726F723A257311
:102480002C25640D0A000000440000201CB52248E1
:10249000014609780191FF21024611700146097831
:1024A00000919DF8001001F050011C4A11700721A5
:1024B0001B4A116009E01A490968491E184A11604F
:1024C0009DF800104906090E00919DF8001001F0DA
:1024D00080018029EFD0124909680902104A116071
:1024E0001146098801F4E06111600B4A01991170ED
:1024F0000C48006840F470000A490860084600680B
:1025000040F070400860FFF75FFD0020064908605A
:10251000FDF776FE00201CBD00E400E0B0000020C6
:10252000B400002020ED00E0AC00002010B500BF9A
:10253000502080F31188BFF34F8FBFF36F8F00BF20
:1025400000F084FB18B14FF080500449086000BFD0
:10255000002080F3118800BF10BD000004ED00E0F2
:102560002DE9F84305460E4690460DB1012000E0E6
:10257000002028B94FF4C4720DA112A0FDF79CFEF3
:102580000EB9002701E005FB06F707F15400FFF73D
:1025900023FB044644B104F1540943464A463146FC
:1025A00028460094FEF774FF2046BDE8F88300003B
:1025B0004672656552544F535C71756575652E633F
:1025C000000000004572726F723A25732C25640D6D
:1025D0000A0000002DE9FF4782B005460E461F465F
:1025E0004FF0000A2C462CB940F2DC4261A166A0F3
:1025F000FDF762FE0EB9206C08B9012000E0002052
:1026000028B940F2DD425BA15FA0FDF755FE00F066
:1026100007FB08B9049808B9012000E0002028B998
:102620004FF49C6253A158A0FDF746FE00BFFFF790
:10263000F9FBD4F83890B9F1000F3DD0D4F80C80F4
:1026400031462046FEF762FEDFB9A9F10100A06322
:10265000206810B9FFF768FB6060206908B90120A5
:1026600000E0002010BB04F1100000F00BFCE8B10A
:102670004FF0805048490860BFF34F8FBFF36F8F12
:1026800014E0C4F80C80606A08B9012000E0002062
:1026900060B904F1240000F0F5FB38B14FF0805030
:1026A0003D490860BFF34F8FBFF36F8FFFF7FCFB0F
:1026B000012006B0BDE8F087049818B9FFF7F4FBD5
:1026C0000020F6E7BAF1000F04D16846FFF706FED6
:1026D0004FF0010AFFF7E8FBFFF77CFEFFF7A2FBD4
:1026E00094F94400401C10B9002084F8440094F987
:1026F0004500401C10B9002084F84500FFF7D4FBCA
:1027000004A9684600F00CFA40BB2046FEF7D4FF4F
:10271000F0B1206830B9FFF785FB6068FFF786FDF0
:10272000FFF7C2FB04F124000499FFF727FD2046C0
:10273000FFF709FA00F000FC00287FF478AF4FF0B3
:10274000805015490860BFF34F8FBFF36F8F6EE75E
:102750002046FFF7F8F900F0EFFB68E72046FFF7A7
:10276000F2F900F0E9FB2046FEF7A6FF0028EED0C4
:1027700000209EE74672656552544F535C71756543
:1027800075652E63000000004572726F723A257302
:102790002C25640D0A00000004ED00E070B505462C
:1027A0000E462C462CB940F21B121EA122A0FDF7AA
:1027B00083FDFFF737FBD4E90F12206801FB02000D
:1027C00060600020A0632068A060E06B401E226C67
:1027D000216800FB0210E060FF2084F8440084F8C8
:1027E00045009EB9206908B9012000E00020A8B981
:1027F00004F1100000F046FB80B14FF08050124908
:102800000860BFF34F8FBFF36F8F07E004F1100034
:10281000FFF7D2FA04F12400FFF7CEFAFFF744FBEA
:10282000012070BD4672656552544F535C717565E9
:1028300075652E63000000004572726F723A257351
:102840002C25640D0A00000004ED00E02DE9FF4393
:1028500083B0064688461D464FF0000934462CB921
:1028600040F2D92260A165A0FDF726FDB8F1000F66
:1028700001D1206C08B9012000E0002028B940F205
:10288000DA2259A15DA0FDF717FD022D02D1E06B00
:10289000012801D1012000E0002028B940F2DB220C
:1028A00051A156A0FDF708FD00F0BAF908B9059846
:1028B00008B9012000E0002028B940F2DE224AA138
:1028C0004EA0FDF7F9FC00BFFFF7ACFAA06BE16B7F
:1028D000884201D3022D38D12A4641462046FEF7D0
:1028E0002AFD0746A06C68B129462046FEF700FF86
:1028F00028B34FF0805045490860BFF34F8FBFF3B6
:102900006F8F1CE0606A08B9012000E0002068B900
:1029100004F1240000F0B6FA88B14FF080503B4932
:102920000860BFF34F8FBFF36F8F08E03FB14FF0E8
:10293000805036490860BFF34F8FBFF36F8FFFF7AA
:10294000B3FA012007B0BDE8F083059818B9FFF786
:10295000ABFA0020F6E7B9F1000F04D101A8FFF7A8
:10296000BDFC4FF00109FFF79FFAFFF733FDFFF7BA
:1029700059FA94F94400401C10B9002084F844002E
:1029800094F94500401C10B9002084F84500FFF779
:102990008BFA05A901A800F0C3F8F0B92046FEF7AC
:1029A00098FEA0B104F110000599FFF7E7FB20465F
:1029B000FFF7C9F800F0C0FA002885D14FF0805029
:1029C00012490860BFF34F8FBFF36F8F7CE720463B
:1029D000FFF7B9F800F0B0FA76E72046FFF7B3F852
:1029E00000F0AAFA0020ADE74672656552544F53D5
:1029F0005C71756575652E63000000004572726F2D
:102A0000723A25732C25640D0A00000004ED00E0E5
:102A10002DE9F05F80468A4615461E4644462CB98D
:102A200040F29F3235A13AA0FDF746FCBAF1000F03
:102A300001D1206C08B9012000E0002028B94FF432
:102A400068722EA132A0FDF737FC022E02D1E06B96
:102A5000012801D1012000E0002028B940F2A13274
:102A600026A12BA0FDF728FCFFF7BEFA00BF5021DE
:102A7000EFF3118081F31188BFF34F8FBFF36F8F96
:102A800000BF0746A06BE16B884201D3022E2BD119
:102A900094F945B0324651462046FEF74CFC0BF106
:102AA0000100C8B9A06C40B131462046FEF720FEB7
:102AB000B8B1B5B10120286013E0606A08B90120FF
:102AC00000E0002068B904F1240000F0DBF940B117
:102AD0003DB10120286004E00BF1010040B284F810
:102AE00045004FF0010901E04FF0000900BF87F3F6
:102AF000118800BF4846BDE8F09F0000467265653A
:102B000052544F535C71756575652E63000000006B
:102B10004572726F723A25732C25640D0A0000000D
:102B20002DE9F04104460D462CB940F6CB3219A1EF
:102B30001DA0FDF7C1FB2DB940F6CC3215A11AA09E
:102B4000FDF7BAFBFFF76EF91B4807682868401CC1
:102B500008B9002619E0194920680968884204D09C
:102B60006068B84201D801260FE06068381A296809
:102B7000884209D228686168791A401A286020467C
:102B8000FFF7ACFB002600E00126FFF78DF9304689
:102B9000BDE8F0814672656552544F535C746173B1
:102BA0006B732E63000000004572726F723A2573DA
:102BB0002C25640D0A000000580000206C00002045
:102BC0002DE9FF4F85B0804689461746DDE912ABF7
:102BD000B800FFF701F8064656B15C20FEF7FCFF8F
:102BE00004460CB1266304E03046FFF793F900E099
:102BF00000247CB10020CDE900ABCDE902403A468B
:102C000049464046089BFEF75BFC2046FEF7BEFAAD
:102C1000012501E04FF0FF35284609B0BDE8F08FEF
:102C20000549096809B9012005E00449096809B99D
:102C3000022000E000207047600000207C0000209F
:102C40000149086870470000580000202DE9F04154
:102C50004FF0000841480068002872D140480068E1
:102C6000451C3F480560EDB93E480068006808B95A
:102C7000012000E0002028B940F6D9123AA13FA077
:102C8000FDF71AFB37480768404800683549086077
:102C90003E4807603E480068401C3D490860FEF71A
:102CA00083FE00BF3B48006885423CD300BF2D48EF
:102CB0000068006808B9012000E0002020B14FF052
:102CC000FF30344908602DE026480068C068C468B9
:102CD0006668B54202D22F48066023E0201DFFF748
:102CE00057F8A06A18B104F11800FFF751F894F8EA
:102CF0002C100120884028490968084326490860AB
:102D0000E16A01EB8101254A02EB8100211DFFF7F9
:102D10007DF82349E06A0968C96A8842C7D34FF041
:102D20000108C4E700BF1E480068C06A00EB8000CD
:102D30001A4951F82000012801D94FF0010805E097
:102D4000FFE718480068401C1649086016480068EC
:102D500008B14FF001084046BDE8F0817C0000203A
:102D600058000020480000204672656552544F53B9
:102D70005C7461736B732E63000000004572726FA8
:102D8000723A25732C25640D0A0000004C000020C7
:102D90006C000020740000205C000020C0010020B6
:102DA00044000020640000206800002070B5054643
:102DB0002C460026002D4BD026480068844201D1C5
:102DC000012000E0002028B940F6C76222A127A018
:102DD000FDF772FA206D28B940F6C9621EA123A042
:102DE000FDF76AFA206D401E2065E16CE06A8842BA
:102DF0002ED0206D60BB201DFEF7CAFF78B9E06AB7
:102E000000EB80001D4951F8200040B994F82C10C7
:102E1000012088401A490968814319480160E06C23
:102E2000E062E06AC0F12000A06194F82C1001205B
:102E3000884013490968084311490860E16A01EBB9
:102E400081010E4A02EB8100211DFEF7DFFF012602
:102E5000304670BD440000204672656552544F53A1
:102E60005C7461736B732E63000000004572726FB7
:102E7000723A25732C25640D0A000000C001002061
:102E80005C00002070B50646F068C4682CB940F6B6
:102E900061321AA11EA0FDF70FFA04F11800FEF727
:102EA00077FF1F480068A8B9201DFEF771FF94F84E
:102EB0002C10012088401B49096808431949086003
:102EC000E16A01EB8101184A02EB8100211DFEF746
:102ED0009DFF04E004F118011448FEF797FF144920
:102EE000E06A0968C96A884204D9012501201149AC
:102EF000086000E00025284670BD00004672656548
:102F000052544F535C7461736B732E630000000066
:102F10004572726F723A25732C25640D0A00000009
:102F20007C0000205C000020C0010020680400201C
:102F3000440000206800002070B5002400263448BA
:102F4000006828B94FF4FD6232A137A0FDF7B4F94B
:102F5000FEF768FF2E480068401E2D4908600846AD
:102F6000006800284FD13448006800284BD024E086
:102F70003248C068C46804F11800FEF709FF201D3C
:102F8000FEF706FF94F82C10012088402C490968B0
:102F900008432B490860E16A01EB8101294A02EBF1
:102FA0008100211DFEF732FF2749E06A0968C96ADE
:102FB000884202D30120254908602048006808B9EA
:102FC000012000E000200028D2D00CB1FEF7ECFC7C
:102FD0001F48056865B100BFFFF738FE10B101203A
:102FE0001A4908606D1E002DF6D1002018490860AE
:102FF0001648006838B10126300716490860BFF34B
:103000004F8FBFF36F8FFEF74FFF304670BD00004C
:103010007C0000204672656552544F535C746173A6
:103020006B732E63000000004572726F723A257355
:103030002C25640D0A0000005400002068040020C4
:103040005C000020C0010020440000206800002037
:103050006400002004ED00E01CB50024FEF7F2F847
:103060000B48006858B10B481F2100234FF48272AF
:10307000CDE9001008A10A48FFF7A2FD04462CB9CB
:1030800040F2331207A10CA0FDF716F920461CBD33
:10309000880000208C000020546D7220537663005D
:1030A0002D1B00084672656552544F535C74696D60
:1030B0006572732E630000004572726F723A257359
:1030C0002C25640D0A0000002DE9FF4704460D463B
:1030D00016461F46DDF830804FF000092CB94FF43A
:1030E000D37217A11BA0FDF7E7F81E48006810B3C4
:1030F000009501960294062D15DAFFF791FD02283E
:1031000008D100234246694616480068FFF79EFB37
:10311000814610E000231A46694612480068FFF70E
:1031200095FB814607E000233A4669460D48006852
:10313000FFF76EFC8146484604B0BDE8F08700000A
:103140004672656552544F535C74696D6572732E97
:10315000630000004572726F723A25732C25640D6E
:103160000A000000880000208831000800000020CC
:10317000B80000006C01000840320008B8000020D0
:10318000785A0000880100080000000000000000DC
:10319000000000000000000000000000000000002F
:1031A00000000000000001020304010203040607FE
:1031B000080902040608000000A24A0400000000FA
:1031C00000000000010203040607080900000000D7
:1031D00000000000000000000000000000000000EF
:1031E00000000000000000000000000000000000DF
:1031F00000000000000000000000000000000000CF
:1032000000000000000000000000000000000000BE
:1032100000000000000000000000000000000000AE
:10322000000000000000000000000000000000009E
:1032300000000000AAAAAAAA0000000000000000E6
:0400000508000131BD
:00000001FF
